{
  "contractName": "Identity",
  "abi": [
    {
      "constant": true,
      "inputs": [],
      "name": "owner",
      "outputs": [
        {
          "name": "",
          "type": "address"
        }
      ],
      "payable": false,
      "stateMutability": "view",
      "type": "function"
    },
    {
      "inputs": [
        {
          "name": "_owner",
          "type": "address"
        }
      ],
      "payable": false,
      "stateMutability": "nonpayable",
      "type": "constructor"
    },
    {
      "payable": true,
      "stateMutability": "payable",
      "type": "fallback"
    },
    {
      "anonymous": false,
      "inputs": [
        {
          "indexed": true,
          "name": "key",
          "type": "bytes32"
        },
        {
          "indexed": true,
          "name": "value",
          "type": "bytes32"
        }
      ],
      "name": "DataChanged",
      "type": "event"
    },
    {
      "anonymous": false,
      "inputs": [
        {
          "indexed": true,
          "name": "ownerAddress",
          "type": "address"
        }
      ],
      "name": "OwnerChanged",
      "type": "event"
    },
    {
      "anonymous": false,
      "inputs": [
        {
          "indexed": true,
          "name": "contractAddress",
          "type": "address"
        }
      ],
      "name": "ContractCreated",
      "type": "event"
    },
    {
      "constant": false,
      "inputs": [
        {
          "name": "_owner",
          "type": "address"
        }
      ],
      "name": "changeOwner",
      "outputs": [],
      "payable": false,
      "stateMutability": "nonpayable",
      "type": "function"
    },
    {
      "constant": true,
      "inputs": [
        {
          "name": "_key",
          "type": "bytes32"
        }
      ],
      "name": "getData",
      "outputs": [
        {
          "name": "_value",
          "type": "bytes32"
        }
      ],
      "payable": false,
      "stateMutability": "view",
      "type": "function"
    },
    {
      "constant": false,
      "inputs": [
        {
          "name": "_key",
          "type": "bytes32"
        },
        {
          "name": "_value",
          "type": "bytes32"
        }
      ],
      "name": "setData",
      "outputs": [],
      "payable": false,
      "stateMutability": "nonpayable",
      "type": "function"
    },
    {
      "constant": false,
      "inputs": [
        {
          "name": "_operationType",
          "type": "uint256"
        },
        {
          "name": "_to",
          "type": "address"
        },
        {
          "name": "_value",
          "type": "uint256"
        },
        {
          "name": "_data",
          "type": "bytes"
        }
      ],
      "name": "execute",
      "outputs": [],
      "payable": false,
      "stateMutability": "nonpayable",
      "type": "function"
    },
    {
      "constant": false,
      "inputs": [],
      "name": "kill",
      "outputs": [],
      "payable": false,
      "stateMutability": "nonpayable",
      "type": "function"
    }
  ],
  "bytecode": "0x608060405234801561001057600080fd5b5060405160208061172b8339810180604052602081101561003057600080fd5b8101908080519060200190929190505050308161004b610116565b808373ffffffffffffffffffffffffffffffffffffffff1673ffffffffffffffffffffffffffffffffffffffff1681526020018273ffffffffffffffffffffffffffffffffffffffff1673ffffffffffffffffffffffffffffffffffffffff16815260200192505050604051809103906000f0801580156100d0573d6000803e3d6000fd5b506000806101000a81548173ffffffffffffffffffffffffffffffffffffffff021916908373ffffffffffffffffffffffffffffffffffffffff16021790555050610126565b604051610dd88061095383390190565b61081e806101356000396000f3fe608060405260043610610078576000357c0100000000000000000000000000000000000000000000000000000000900463ffffffff16806341c0e1b51461007a57806344c028fe1461009157806354f6127f1461014b578063749ebfb81461019a5780638da5cb5b146101df578063a6f9dae114610236575b005b34801561008657600080fd5b5061008f610287565b005b34801561009d57600080fd5b50610149600480360360808110156100b457600080fd5b8101908080359060200190929190803573ffffffffffffffffffffffffffffffffffffffff169060200190929190803590602001909291908035906020019064010000000081111561010557600080fd5b82018360208201111561011757600080fd5b8035906020019184600183028401116401000000008311171561013957600080fd5b90919293919293905050506102f7565b005b34801561015757600080fd5b506101846004803603602081101561016e57600080fd5b810190808035906020019092919050505061050d565b6040518082815260200191505060405180910390f35b3480156101a657600080fd5b506101dd600480360360408110156101bd57600080fd5b81019080803590602001909291908035906020019092919050505061052a565b005b3480156101eb57600080fd5b506101f4610638565b604051808273ffffffffffffffffffffffffffffffffffffffff1673ffffffffffffffffffffffffffffffffffffffff16815260200191505060405180910390f35b34801561024257600080fd5b506102856004803603602081101561025957600080fd5b81019080803573ffffffffffffffffffffffffffffffffffffffff16906020019092919050505061065d565b005b6000809054906101000a900473ffffffffffffffffffffffffffffffffffffffff1673ffffffffffffffffffffffffffffffffffffffff163373ffffffffffffffffffffffffffffffffffffffff1614156102f5573373ffffffffffffffffffffffffffffffffffffffff16ff5b565b6000809054906101000a900473ffffffffffffffffffffffffffffffffffffffff1673ffffffffffffffffffffffffffffffffffffffff163373ffffffffffffffffffffffffffffffffffffffff161415156103bb576040517f08c379a00000000000000000000000000000000000000000000000000000000081526004018080602001828103825260128152602001807f6f6e6c792d6f776e65722d616c6c6f776564000000000000000000000000000081525060200191505060405180910390fd5b600085141561041957610413848484848080601f016020809104026020016040519081016040528093929190818152602001838380828437600081840152601f19601f820116905080830192505050505050506107c8565b50610506565b60018514156104bc57600061047183838080601f016020809104026020016040519081016040528093929190818152602001838380828437600081840152601f19601f820116905080830192505050505050506107e0565b90508073ffffffffffffffffffffffffffffffffffffffff167fcf78cf0d6f3d8371e1075c69c492ab4ec5d8cf23a1a239b6a51a1d00be7ca31260405160405180910390a250610505565b6040517f08c379a0000000000000000000000000000000000000000000000000000000008152600401808060200182810382526000815260200160200191505060405180910390fd5b5b5050505050565b600060016000838152602001908152602001600020549050919050565b6000809054906101000a900473ffffffffffffffffffffffffffffffffffffffff1673ffffffffffffffffffffffffffffffffffffffff163373ffffffffffffffffffffffffffffffffffffffff161415156105ee576040517f08c379a00000000000000000000000000000000000000000000000000000000081526004018080602001828103825260128152602001807f6f6e6c792d6f776e65722d616c6c6f776564000000000000000000000000000081525060200191505060405180910390fd5b80600160008481526020019081526020016000208190555080827f35553580e4553c909abeb5764e842ce1f93c45f9f614bde2a2ca5f5b7b7dc0fb60405160405180910390a35050565b6000809054906101000a900473ffffffffffffffffffffffffffffffffffffffff1681565b6000809054906101000a900473ffffffffffffffffffffffffffffffffffffffff1673ffffffffffffffffffffffffffffffffffffffff163373ffffffffffffffffffffffffffffffffffffffff16141515610721576040517f08c379a00000000000000000000000000000000000000000000000000000000081526004018080602001828103825260128152602001807f6f6e6c792d6f776e65722d616c6c6f776564000000000000000000000000000081525060200191505060405180910390fd5b806000806101000a81548173ffffffffffffffffffffffffffffffffffffffff021916908373ffffffffffffffffffffffffffffffffffffffff1602179055506000809054906101000a900473ffffffffffffffffffffffffffffffffffffffff1673ffffffffffffffffffffffffffffffffffffffff167fa2ea9883a321a3e97b8266c2b078bfeec6d50c711ed71f874a90d500ae2eaf3660405160405180910390a250565b600080600083516020850186885af190509392505050565b60008151602083016000f0905091905056fea165627a7a72305820de711785b3d09fb0db5a518edddfb4325e9e5059bdfdd6cff5f804fc15910dcc0029608060405234801561001057600080fd5b50604051604080610dd88339810180604052604081101561003057600080fd5b810190808051906020019092919080519060200190929190505050806000806101000a81548173ffffffffffffffffffffffffffffffffffffffff021916908373ffffffffffffffffffffffffffffffffffffffff16021790555081600160006101000a81548173ffffffffffffffffffffffffffffffffffffffff021916908373ffffffffffffffffffffffffffffffffffffffff160217905550600081604051602001808273ffffffffffffffffffffffffffffffffffffffff1673ffffffffffffffffffffffffffffffffffffffff166c01000000000000000000000000028152601401915050604051602081830303815290604052805190602001209050606060405190810160405280600181526020016001815260200182815250600260008381526020019081526020016000206000820151816000015560208201518160010155604082015181600201559050506003600060018152602001908152602001600020819080600181540180825580915050906001820390600052602060002001600090919290919091505550600180827f480000bb1edad8ca1470381cc334b1917fbd51c6531f3a623ea8e0ec7e38a6e960405160405180910390a4505050610bd4806102046000396000f3fe608060405260043610610078576000357c0100000000000000000000000000000000000000000000000000000000900463ffffffff16806312aaac701461007d5780631d381240146100da578063481c6a751461014157806353d413c5146101985780639010f726146101f5578063d202158d14610285575b600080fd5b34801561008957600080fd5b506100b6600480360360208110156100a057600080fd5b81019080803590602001909291905050506102e2565b60405180848152602001838152602001828152602001935050505060405180910390f35b3480156100e657600080fd5b50610127600480360360608110156100fd57600080fd5b81019080803590602001909291908035906020019092919080359060200190929190505050610339565b604051808215151515815260200191505060405180910390f35b34801561014d57600080fd5b50610156610635565b604051808273ffffffffffffffffffffffffffffffffffffffff1673ffffffffffffffffffffffffffffffffffffffff16815260200191505060405180910390f35b3480156101a457600080fd5b506101db600480360360408110156101bb57600080fd5b81019080803590602001909291908035906020019092919050505061065a565b604051808215151515815260200191505060405180910390f35b34801561020157600080fd5b5061022e6004803603602081101561021857600080fd5b8101908080359060200190929190505050610a3c565b6040518080602001828103825283818151815260200191508051906020019060200280838360005b83811015610271578082015181840152602081019050610256565b505050509050019250505060405180910390f35b34801561029157600080fd5b506102c8600480360360408110156102a857600080fd5b810190808035906020019092919080359060200190929190505050610aa7565b604051808215151515815260200191505060405180910390f35b60008060006002600085815260200190815260200160002060000154600260008681526020019081526020016000206001015460026000878152602001908152602001600020600201549250925092509193909250565b6000836002600086815260200190815260200160002060020154141515156103c9576040517f08c379a00000000000000000000000000000000000000000000000000000000081526004018080602001828103825260138152602001807f4b657920616c7265616479206578697374732e0000000000000000000000000081525060200191505060405180910390fd5b3073ffffffffffffffffffffffffffffffffffffffff163373ffffffffffffffffffffffffffffffffffffffff161415156105ab573073ffffffffffffffffffffffffffffffffffffffff1663d202158d33604051602001808273ffffffffffffffffffffffffffffffffffffffff1673ffffffffffffffffffffffffffffffffffffffff166c010000000000000000000000000281526014019150506040516020818303038152906040528051906020012060016040518363ffffffff167c0100000000000000000000000000000000000000000000000000000000028152600401808381526020018281526020019250505060206040518083038186803b1580156104d557600080fd5b505afa1580156104e9573d6000803e3d6000fd5b505050506040513d60208110156104ff57600080fd5b810190808051906020019092919050505015156105aa576040517f08c379a00000000000000000000000000000000000000000000000000000000081526004018080602001828103825260238152602001807f53656e64657220646f7365206e6f7420686176652061206d616e61676572206b81526020017f65792e000000000000000000000000000000000000000000000000000000000081525060400191505060405180910390fd5b5b60606040519081016040528084815260200183815260200185815250600260008681526020019081526020016000206000820151816000015560208201518160010155604082015181600201559050508183857f480000bb1edad8ca1470381cc334b1917fbd51c6531f3a623ea8e0ec7e38a6e960405160405180910390a4600190509392505050565b6000809054906101000a900473ffffffffffffffffffffffffffffffffffffffff1681565b60008260026000858152602001908152602001600020600201541415156106e9576040517f08c379a000000000000000000000000000000000000000000000000000000000815260040180806020018281038252600c8152602001807f4e6f2073756368206b65792e000000000000000000000000000000000000000081525060200191505060405180910390fd5b3073ffffffffffffffffffffffffffffffffffffffff163373ffffffffffffffffffffffffffffffffffffffff161415156108cb573073ffffffffffffffffffffffffffffffffffffffff1663d202158d33604051602001808273ffffffffffffffffffffffffffffffffffffffff1673ffffffffffffffffffffffffffffffffffffffff166c010000000000000000000000000281526014019150506040516020818303038152906040528051906020012060016040518363ffffffff167c0100000000000000000000000000000000000000000000000000000000028152600401808381526020018281526020019250505060206040518083038186803b1580156107f557600080fd5b505afa158015610809573d6000803e3d6000fd5b505050506040513d602081101561081f57600080fd5b810190808051906020019092919050505015156108ca576040517f08c379a00000000000000000000000000000000000000000000000000000000081526004018080602001828103825260238152602001807f53656e64657220646f6573206e6f7420686176652061206d616e61676572206b81526020017f65792e000000000000000000000000000000000000000000000000000000000081525060400191505060405180910390fd5b5b600260008481526020019081526020016000206001015482847f585a4aef50f8267a92b32412b331b20f7f8b96f2245b253b9cc50dcc621d339760405160405180910390a460026000848152602001908152602001600020600080820160009055600182016000905560028201600090555050600060036000848152602001908152602001600020905060008090505b8180549050811015610a0d5784828281548110151561097657fe5b90600052602060002001541415610a005781600183805490500381548110151561099c57fe5b906000526020600020015482828154811015156109b557fe5b90600052602060002001819055508160018380549050038154811015156109d857fe5b9060005260206000200160009055818054809190600190036109fa9190610b05565b50610a0d565b808060010191505061095b565b508060036000858152602001908152602001600020908054610a30929190610b31565b50600191505092915050565b606060036000838152602001908152602001600020805480602002602001604051908101604052809291908181526020018280548015610a9b57602002820191906000526020600020905b815481526020019060010190808311610a87575b50505050509050919050565b60008060010260026000858152602001908152602001600020600201541415610ad35760009050610aff565b8160026000858152602001908152602001600020600001541415610afa5760019050610aff565b600090505b92915050565b815481835581811115610b2c57818360005260206000209182019101610b2b9190610b83565b5b505050565b828054828255906000526020600020908101928215610b725760005260206000209182015b82811115610b71578254825591600101919060010190610b56565b5b509050610b7f9190610b83565b5090565b610ba591905b80821115610ba1576000816000905550600101610b89565b5090565b9056fea165627a7a72305820399f9f575325547872ec54fdeb88688044ce836017ac93fef690212ecbce79140029",
  "source": "pragma solidity >=0.5.0 <0.6.0;\n\nimport \"./ERC725.sol\";\nimport \"./KeyManager.sol\";\n\ncontract Identity is ERC725 {\n  uint256 constant OPERATION_CALL = 0;\n  uint256 constant OPERATION_CREATE = 1;\n\n  address public owner;\n  mapping(bytes32 => bytes32) store;\n\n  constructor(address _owner) public {\n    owner = address(new KeyManager(address(this), _owner));\n  }\n\n  modifier onlyOwner() {\n    require(msg.sender == owner, \"only-owner-allowed\");\n    _;\n  }\n\n  function () external payable {}\n\n  function changeOwner(address _owner) external onlyOwner {\n    owner = _owner;\n    emit OwnerChanged(owner);\n  }\n\n  function getData(bytes32 _key) external view returns (bytes32 _value) {\n    return store[_key];\n  }\n\n  function setData(bytes32 _key, bytes32 _value) external onlyOwner {\n    store[_key] = _value;\n    emit DataChanged(_key, _value);\n  }\n\n  function execute(uint256 _operationType, address _to, uint256 _value, bytes calldata _data)\n    external\n    onlyOwner\n  {\n    if (_operationType == OPERATION_CALL) {\n      executeCall(_to, _value, _data);\n    } else if (_operationType == OPERATION_CREATE) {\n      address newContract = executeCreate(_data);\n      emit ContractCreated(newContract);\n    } else {\n      // We don't want to spend users gas if parametar is wrong\n      revert(\"\");\n    }\n  }\n\n  // copied from GnosisSafe\n  // https://github.com/gnosis/safe-contracts/blob/v0.0.2-alpha/contracts/base/Executor.sol\n  function executeCall(address to, uint256 value, bytes memory data)\n    internal\n    returns (bool success)\n  {\n    // solium-disable-next-line security/no-inline-assembly\n    assembly {\n      success := call(gas, to, value, add(data, 0x20), mload(data), 0, 0)\n    }\n  }\n\n  // copied from GnosisSafe\n  // https://github.com/gnosis/safe-contracts/blob/v0.0.2-alpha/contracts/base/Executor.sol\n  function executeCreate(bytes memory data)\n    internal\n    returns (address newContract)\n  {\n    // solium-disable-next-line security/no-inline-assembly\n    assembly {\n      newContract := create(0, add(data, 0x20), mload(data))\n    }\n  }\n\n  function kill() public {\n    if (msg.sender == owner) selfdestruct(msg.sender);\n  }\n}\n",
  "sourcePath": "/Users/xiaobowen/codes/erc725-did-method/contracts/Identity.sol",
  "compiler": {
    "name": "solc",
    "version": "0.5.0+commit.1d4f565a.Emscripten.clang"
  },
  "schemaVersion": "3.0.2",
  "updatedAt": "2019-04-13T07:31:17.239Z",
  "devdoc": {
    "methods": {}
  },
  "userdoc": {
    "methods": {}
  }
}