{
  "contractName": "Identity",
  "abi": [
    {
      "constant": true,
      "inputs": [],
      "name": "owner",
      "outputs": [
        {
          "name": "",
          "type": "address"
        }
      ],
      "payable": false,
      "stateMutability": "view",
      "type": "function"
    },
    {
      "inputs": [
        {
          "name": "_owner",
          "type": "address"
        }
      ],
      "payable": false,
      "stateMutability": "nonpayable",
      "type": "constructor"
    },
    {
      "payable": true,
      "stateMutability": "payable",
      "type": "fallback"
    },
    {
      "anonymous": false,
      "inputs": [
        {
          "indexed": true,
          "name": "key",
          "type": "bytes32"
        },
        {
          "indexed": true,
          "name": "value",
          "type": "bytes32"
        }
      ],
      "name": "DataChanged",
      "type": "event"
    },
    {
      "anonymous": false,
      "inputs": [
        {
          "indexed": true,
          "name": "ownerAddress",
          "type": "address"
        }
      ],
      "name": "OwnerChanged",
      "type": "event"
    },
    {
      "anonymous": false,
      "inputs": [
        {
          "indexed": true,
          "name": "contractAddress",
          "type": "address"
        }
      ],
      "name": "ContractCreated",
      "type": "event"
    },
    {
      "constant": false,
      "inputs": [
        {
          "name": "_owner",
          "type": "address"
        }
      ],
      "name": "changeOwner",
      "outputs": [],
      "payable": false,
      "stateMutability": "nonpayable",
      "type": "function"
    },
    {
      "constant": true,
      "inputs": [
        {
          "name": "_key",
          "type": "bytes32"
        }
      ],
      "name": "getData",
      "outputs": [
        {
          "name": "_value",
          "type": "bytes32"
        }
      ],
      "payable": false,
      "stateMutability": "view",
      "type": "function"
    },
    {
      "constant": false,
      "inputs": [
        {
          "name": "_key",
          "type": "bytes32"
        },
        {
          "name": "_value",
          "type": "bytes32"
        }
      ],
      "name": "setData",
      "outputs": [],
      "payable": false,
      "stateMutability": "nonpayable",
      "type": "function"
    },
    {
      "constant": false,
      "inputs": [
        {
          "name": "_operationType",
          "type": "uint256"
        },
        {
          "name": "_to",
          "type": "address"
        },
        {
          "name": "_value",
          "type": "uint256"
        },
        {
          "name": "_data",
          "type": "bytes"
        }
      ],
      "name": "execute",
      "outputs": [],
      "payable": false,
      "stateMutability": "nonpayable",
      "type": "function"
    }
  ],
  "bytecode": "0x608060405234801561001057600080fd5b5060405160208061081d8339810180604052602081101561003057600080fd5b8101908080519060200190929190505050806000806101000a81548173ffffffffffffffffffffffffffffffffffffffff021916908373ffffffffffffffffffffffffffffffffffffffff1602179055505061078c806100916000396000f3fe60806040526004361061006d576000357c0100000000000000000000000000000000000000000000000000000000900463ffffffff16806344c028fe1461006f57806354f6127f14610129578063749ebfb8146101785780638da5cb5b146101bd578063a6f9dae114610214575b005b34801561007b57600080fd5b506101276004803603608081101561009257600080fd5b8101908080359060200190929190803573ffffffffffffffffffffffffffffffffffffffff16906020019092919080359060200190929190803590602001906401000000008111156100e357600080fd5b8201836020820111156100f557600080fd5b8035906020019184600183028401116401000000008311171561011757600080fd5b9091929391929390505050610265565b005b34801561013557600080fd5b506101626004803603602081101561014c57600080fd5b810190808035906020019092919050505061047b565b6040518082815260200191505060405180910390f35b34801561018457600080fd5b506101bb6004803603604081101561019b57600080fd5b810190808035906020019092919080359060200190929190505050610498565b005b3480156101c957600080fd5b506101d26105a6565b604051808273ffffffffffffffffffffffffffffffffffffffff1673ffffffffffffffffffffffffffffffffffffffff16815260200191505060405180910390f35b34801561022057600080fd5b506102636004803603602081101561023757600080fd5b81019080803573ffffffffffffffffffffffffffffffffffffffff1690602001909291905050506105cb565b005b6000809054906101000a900473ffffffffffffffffffffffffffffffffffffffff1673ffffffffffffffffffffffffffffffffffffffff163373ffffffffffffffffffffffffffffffffffffffff16141515610329576040517f08c379a00000000000000000000000000000000000000000000000000000000081526004018080602001828103825260128152602001807f6f6e6c792d6f776e65722d616c6c6f776564000000000000000000000000000081525060200191505060405180910390fd5b600085141561038757610381848484848080601f016020809104026020016040519081016040528093929190818152602001838380828437600081840152601f19601f82011690508083019250505050505050610736565b50610474565b600185141561042a5760006103df83838080601f016020809104026020016040519081016040528093929190818152602001838380828437600081840152601f19601f8201169050808301925050505050505061074e565b90508073ffffffffffffffffffffffffffffffffffffffff167fcf78cf0d6f3d8371e1075c69c492ab4ec5d8cf23a1a239b6a51a1d00be7ca31260405160405180910390a250610473565b6040517f08c379a0000000000000000000000000000000000000000000000000000000008152600401808060200182810382526000815260200160200191505060405180910390fd5b5b5050505050565b600060016000838152602001908152602001600020549050919050565b6000809054906101000a900473ffffffffffffffffffffffffffffffffffffffff1673ffffffffffffffffffffffffffffffffffffffff163373ffffffffffffffffffffffffffffffffffffffff1614151561055c576040517f08c379a00000000000000000000000000000000000000000000000000000000081526004018080602001828103825260128152602001807f6f6e6c792d6f776e65722d616c6c6f776564000000000000000000000000000081525060200191505060405180910390fd5b80600160008481526020019081526020016000208190555080827f35553580e4553c909abeb5764e842ce1f93c45f9f614bde2a2ca5f5b7b7dc0fb60405160405180910390a35050565b6000809054906101000a900473ffffffffffffffffffffffffffffffffffffffff1681565b6000809054906101000a900473ffffffffffffffffffffffffffffffffffffffff1673ffffffffffffffffffffffffffffffffffffffff163373ffffffffffffffffffffffffffffffffffffffff1614151561068f576040517f08c379a00000000000000000000000000000000000000000000000000000000081526004018080602001828103825260128152602001807f6f6e6c792d6f776e65722d616c6c6f776564000000000000000000000000000081525060200191505060405180910390fd5b806000806101000a81548173ffffffffffffffffffffffffffffffffffffffff021916908373ffffffffffffffffffffffffffffffffffffffff1602179055506000809054906101000a900473ffffffffffffffffffffffffffffffffffffffff1673ffffffffffffffffffffffffffffffffffffffff167fa2ea9883a321a3e97b8266c2b078bfeec6d50c711ed71f874a90d500ae2eaf3660405160405180910390a250565b600080600083516020850186885af190509392505050565b60008151602083016000f0905091905056fea165627a7a72305820c5ff273fb1c49315a28d2eb29d967aeca67da7ff76a46401d4383d7867bef3b70029",
  "source": "pragma solidity >=0.5.0 <0.6.0;\n\nimport \"./ERC725.sol\";\n\ncontract Identity is ERC725 {\n  uint256 constant OPERATION_CALL = 0;\n  uint256 constant OPERATION_CREATE = 1;\n\n  address public owner;\n  mapping(bytes32 => bytes32) store;\n\n  constructor(address _owner) public {\n    owner = _owner;\n  }\n\n  modifier onlyOwner() {\n    require(msg.sender == owner, \"only-owner-allowed\");\n    _;\n  }\n\n  function () external payable {}\n\n  function changeOwner(address _owner) external onlyOwner {\n    owner = _owner;\n    emit OwnerChanged(owner);\n  }\n\n  function getData(bytes32 _key) external view returns (bytes32 _value) {\n    return store[_key];\n  }\n\n  function setData(bytes32 _key, bytes32 _value) external onlyOwner {\n    store[_key] = _value;\n    emit DataChanged(_key, _value);\n  }\n\n  function execute(uint256 _operationType, address _to, uint256 _value, bytes calldata _data)\n    external\n    onlyOwner\n  {\n    if (_operationType == OPERATION_CALL) {\n      executeCall(_to, _value, _data);\n    } else if (_operationType == OPERATION_CREATE) {\n      address newContract = executeCreate(_data);\n      emit ContractCreated(newContract);\n    } else {\n      // We don't want to spend users gas if parametar is wrong\n      revert(\"\");\n    }\n  }\n\n  // copied from GnosisSafe\n  // https://github.com/gnosis/safe-contracts/blob/v0.0.2-alpha/contracts/base/Executor.sol\n  function executeCall(address to, uint256 value, bytes memory data)\n    internal\n    returns (bool success)\n  {\n    // solium-disable-next-line security/no-inline-assembly\n    assembly {\n      success := call(gas, to, value, add(data, 0x20), mload(data), 0, 0)\n    }\n  }\n\n  // copied from GnosisSafe\n  // https://github.com/gnosis/safe-contracts/blob/v0.0.2-alpha/contracts/base/Executor.sol\n  function executeCreate(bytes memory data)\n    internal\n    returns (address newContract)\n  {\n    // solium-disable-next-line security/no-inline-assembly\n    assembly {\n      newContract := create(0, add(data, 0x20), mload(data))\n    }\n  }\n\n  // function kill() public {\n  //   if (msg.sender == owner) selfdestruct(msg.sender);\n  // }\n}\n",
  "sourcePath": "/Users/xiaobowen/codes/erc725-did-method/contracts/Identity.sol",
  "compiler": {
    "name": "solc",
    "version": "0.5.0+commit.1d4f565a.Emscripten.clang"
  },
  "schemaVersion": "3.0.2",
  "updatedAt": "2019-04-03T02:41:53.003Z",
  "devdoc": {
    "methods": {}
  },
  "userdoc": {
    "methods": {}
  }
}