{
  "contractName": "Identity",
  "abi": [
    {
      "constant": true,
      "inputs": [],
      "name": "owner",
      "outputs": [
        {
          "name": "",
          "type": "address"
        }
      ],
      "payable": false,
      "stateMutability": "view",
      "type": "function"
    },
    {
      "inputs": [
        {
          "name": "_owner",
          "type": "address"
        }
      ],
      "payable": false,
      "stateMutability": "nonpayable",
      "type": "constructor"
    },
    {
      "payable": true,
      "stateMutability": "payable",
      "type": "fallback"
    },
    {
      "anonymous": false,
      "inputs": [
        {
          "indexed": true,
          "name": "key",
          "type": "bytes32"
        },
        {
          "indexed": true,
          "name": "value",
          "type": "bytes32"
        }
      ],
      "name": "DataChanged",
      "type": "event"
    },
    {
      "anonymous": false,
      "inputs": [
        {
          "indexed": true,
          "name": "ownerAddress",
          "type": "address"
        }
      ],
      "name": "OwnerChanged",
      "type": "event"
    },
    {
      "anonymous": false,
      "inputs": [
        {
          "indexed": true,
          "name": "contractAddress",
          "type": "address"
        }
      ],
      "name": "ContractCreated",
      "type": "event"
    },
    {
      "constant": false,
      "inputs": [
        {
          "name": "_owner",
          "type": "address"
        }
      ],
      "name": "changeOwner",
      "outputs": [],
      "payable": false,
      "stateMutability": "nonpayable",
      "type": "function"
    },
    {
      "constant": true,
      "inputs": [
        {
          "name": "_key",
          "type": "bytes32"
        }
      ],
      "name": "getData",
      "outputs": [
        {
          "name": "_value",
          "type": "bytes32"
        }
      ],
      "payable": false,
      "stateMutability": "view",
      "type": "function"
    },
    {
      "constant": false,
      "inputs": [
        {
          "name": "_key",
          "type": "bytes32"
        },
        {
          "name": "_value",
          "type": "bytes32"
        }
      ],
      "name": "setData",
      "outputs": [],
      "payable": false,
      "stateMutability": "nonpayable",
      "type": "function"
    },
    {
      "constant": false,
      "inputs": [
        {
          "name": "_operationType",
          "type": "uint256"
        },
        {
          "name": "_to",
          "type": "address"
        },
        {
          "name": "_value",
          "type": "uint256"
        },
        {
          "name": "_data",
          "type": "bytes"
        }
      ],
      "name": "execute",
      "outputs": [],
      "payable": false,
      "stateMutability": "nonpayable",
      "type": "function"
    }
  ],
  "bytecode": "0x608060405234801561001057600080fd5b506040516020806115d18339810180604052602081101561003057600080fd5b8101908080519060200190929190505050308161004b610116565b808373ffffffffffffffffffffffffffffffffffffffff1673ffffffffffffffffffffffffffffffffffffffff1681526020018273ffffffffffffffffffffffffffffffffffffffff1673ffffffffffffffffffffffffffffffffffffffff16815260200192505050604051809103906000f0801580156100d0573d6000803e3d6000fd5b506000806101000a81548173ffffffffffffffffffffffffffffffffffffffff021916908373ffffffffffffffffffffffffffffffffffffffff16021790555050610126565b604051610d10806108c183390190565b61078c806101356000396000f3fe60806040526004361061006d576000357c0100000000000000000000000000000000000000000000000000000000900463ffffffff16806344c028fe1461006f57806354f6127f14610129578063749ebfb8146101785780638da5cb5b146101bd578063a6f9dae114610214575b005b34801561007b57600080fd5b506101276004803603608081101561009257600080fd5b8101908080359060200190929190803573ffffffffffffffffffffffffffffffffffffffff16906020019092919080359060200190929190803590602001906401000000008111156100e357600080fd5b8201836020820111156100f557600080fd5b8035906020019184600183028401116401000000008311171561011757600080fd5b9091929391929390505050610265565b005b34801561013557600080fd5b506101626004803603602081101561014c57600080fd5b810190808035906020019092919050505061047b565b6040518082815260200191505060405180910390f35b34801561018457600080fd5b506101bb6004803603604081101561019b57600080fd5b810190808035906020019092919080359060200190929190505050610498565b005b3480156101c957600080fd5b506101d26105a6565b604051808273ffffffffffffffffffffffffffffffffffffffff1673ffffffffffffffffffffffffffffffffffffffff16815260200191505060405180910390f35b34801561022057600080fd5b506102636004803603602081101561023757600080fd5b81019080803573ffffffffffffffffffffffffffffffffffffffff1690602001909291905050506105cb565b005b6000809054906101000a900473ffffffffffffffffffffffffffffffffffffffff1673ffffffffffffffffffffffffffffffffffffffff163373ffffffffffffffffffffffffffffffffffffffff16141515610329576040517f08c379a00000000000000000000000000000000000000000000000000000000081526004018080602001828103825260128152602001807f6f6e6c792d6f776e65722d616c6c6f776564000000000000000000000000000081525060200191505060405180910390fd5b600085141561038757610381848484848080601f016020809104026020016040519081016040528093929190818152602001838380828437600081840152601f19601f82011690508083019250505050505050610736565b50610474565b600185141561042a5760006103df83838080601f016020809104026020016040519081016040528093929190818152602001838380828437600081840152601f19601f8201169050808301925050505050505061074e565b90508073ffffffffffffffffffffffffffffffffffffffff167fcf78cf0d6f3d8371e1075c69c492ab4ec5d8cf23a1a239b6a51a1d00be7ca31260405160405180910390a250610473565b6040517f08c379a0000000000000000000000000000000000000000000000000000000008152600401808060200182810382526000815260200160200191505060405180910390fd5b5b5050505050565b600060016000838152602001908152602001600020549050919050565b6000809054906101000a900473ffffffffffffffffffffffffffffffffffffffff1673ffffffffffffffffffffffffffffffffffffffff163373ffffffffffffffffffffffffffffffffffffffff1614151561055c576040517f08c379a00000000000000000000000000000000000000000000000000000000081526004018080602001828103825260128152602001807f6f6e6c792d6f776e65722d616c6c6f776564000000000000000000000000000081525060200191505060405180910390fd5b80600160008481526020019081526020016000208190555080827f35553580e4553c909abeb5764e842ce1f93c45f9f614bde2a2ca5f5b7b7dc0fb60405160405180910390a35050565b6000809054906101000a900473ffffffffffffffffffffffffffffffffffffffff1681565b6000809054906101000a900473ffffffffffffffffffffffffffffffffffffffff1673ffffffffffffffffffffffffffffffffffffffff163373ffffffffffffffffffffffffffffffffffffffff1614151561068f576040517f08c379a00000000000000000000000000000000000000000000000000000000081526004018080602001828103825260128152602001807f6f6e6c792d6f776e65722d616c6c6f776564000000000000000000000000000081525060200191505060405180910390fd5b806000806101000a81548173ffffffffffffffffffffffffffffffffffffffff021916908373ffffffffffffffffffffffffffffffffffffffff1602179055506000809054906101000a900473ffffffffffffffffffffffffffffffffffffffff1673ffffffffffffffffffffffffffffffffffffffff167fa2ea9883a321a3e97b8266c2b078bfeec6d50c711ed71f874a90d500ae2eaf3660405160405180910390a250565b600080600083516020850186885af190509392505050565b60008151602083016000f0905091905056fea165627a7a723058204396b3302cc1825425bee50fb4765b5c905d4a95abca417eb8e64784d0a7afe10029608060405234801561001057600080fd5b50604051604080610d108339810180604052604081101561003057600080fd5b810190808051906020019092919080519060200190929190505050816000806101000a81548173ffffffffffffffffffffffffffffffffffffffff021916908373ffffffffffffffffffffffffffffffffffffffff160217905550600081604051602001808273ffffffffffffffffffffffffffffffffffffffff1673ffffffffffffffffffffffffffffffffffffffff166c01000000000000000000000000028152601401915050604051602081830303815290604052805190602001209050606060405190810160405280600181526020016001815260200182815250600160008381526020019081526020016000206000820151816000015560208201518160010155604082015181600201559050506002600060018152602001908152602001600020819080600181540180825580915050906001820390600052602060002001600090919290919091505550600180827f480000bb1edad8ca1470381cc334b1917fbd51c6531f3a623ea8e0ec7e38a6e960405160405180910390a4505050610b4d806101c36000396000f3fe60806040526004361061006d576000357c0100000000000000000000000000000000000000000000000000000000900463ffffffff16806312aaac70146100725780631d381240146100cf57806353d413c5146101365780639010f72614610193578063d202158d14610223575b600080fd5b34801561007e57600080fd5b506100ab6004803603602081101561009557600080fd5b8101908080359060200190929190505050610280565b60405180848152602001838152602001828152602001935050505060405180910390f35b3480156100db57600080fd5b5061011c600480360360608110156100f257600080fd5b810190808035906020019092919080359060200190929190803590602001909291905050506102d7565b604051808215151515815260200191505060405180910390f35b34801561014257600080fd5b506101796004803603604081101561015957600080fd5b8101908080359060200190929190803590602001909291905050506105d3565b604051808215151515815260200191505060405180910390f35b34801561019f57600080fd5b506101cc600480360360208110156101b657600080fd5b81019080803590602001909291905050506109b5565b6040518080602001828103825283818151815260200191508051906020019060200280838360005b8381101561020f5780820151818401526020810190506101f4565b505050509050019250505060405180910390f35b34801561022f57600080fd5b506102666004803603604081101561024657600080fd5b810190808035906020019092919080359060200190929190505050610a20565b604051808215151515815260200191505060405180910390f35b60008060006001600085815260200190815260200160002060000154600160008681526020019081526020016000206001015460016000878152602001908152602001600020600201549250925092509193909250565b600083600160008681526020019081526020016000206002015414151515610367576040517f08c379a00000000000000000000000000000000000000000000000000000000081526004018080602001828103825260138152602001807f4b657920616c7265616479206578697374732e0000000000000000000000000081525060200191505060405180910390fd5b3073ffffffffffffffffffffffffffffffffffffffff163373ffffffffffffffffffffffffffffffffffffffff16141515610549573073ffffffffffffffffffffffffffffffffffffffff1663d202158d33604051602001808273ffffffffffffffffffffffffffffffffffffffff1673ffffffffffffffffffffffffffffffffffffffff166c010000000000000000000000000281526014019150506040516020818303038152906040528051906020012060016040518363ffffffff167c0100000000000000000000000000000000000000000000000000000000028152600401808381526020018281526020019250505060206040518083038186803b15801561047357600080fd5b505afa158015610487573d6000803e3d6000fd5b505050506040513d602081101561049d57600080fd5b81019080805190602001909291905050501515610548576040517f08c379a00000000000000000000000000000000000000000000000000000000081526004018080602001828103825260238152602001807f53656e64657220646f7365206e6f7420686176652061206d616e61676572206b81526020017f65792e000000000000000000000000000000000000000000000000000000000081525060400191505060405180910390fd5b5b60606040519081016040528084815260200183815260200185815250600160008681526020019081526020016000206000820151816000015560208201518160010155604082015181600201559050508183857f480000bb1edad8ca1470381cc334b1917fbd51c6531f3a623ea8e0ec7e38a6e960405160405180910390a4600190509392505050565b6000826001600085815260200190815260200160002060020154141515610662576040517f08c379a000000000000000000000000000000000000000000000000000000000815260040180806020018281038252600c8152602001807f4e6f2073756368206b65792e000000000000000000000000000000000000000081525060200191505060405180910390fd5b3073ffffffffffffffffffffffffffffffffffffffff163373ffffffffffffffffffffffffffffffffffffffff16141515610844573073ffffffffffffffffffffffffffffffffffffffff1663d202158d33604051602001808273ffffffffffffffffffffffffffffffffffffffff1673ffffffffffffffffffffffffffffffffffffffff166c010000000000000000000000000281526014019150506040516020818303038152906040528051906020012060016040518363ffffffff167c0100000000000000000000000000000000000000000000000000000000028152600401808381526020018281526020019250505060206040518083038186803b15801561076e57600080fd5b505afa158015610782573d6000803e3d6000fd5b505050506040513d602081101561079857600080fd5b81019080805190602001909291905050501515610843576040517f08c379a00000000000000000000000000000000000000000000000000000000081526004018080602001828103825260238152602001807f53656e64657220646f6573206e6f7420686176652061206d616e61676572206b81526020017f65792e000000000000000000000000000000000000000000000000000000000081525060400191505060405180910390fd5b5b60016000848152602001908152602001600020600080820160009055600182016000905560028201600090555050600060026000848152602001908152602001600020905060008090505b8180549050811015610941578482828154811015156108aa57fe5b90600052602060002001541415610934578160018380549050038154811015156108d057fe5b906000526020600020015482828154811015156108e957fe5b906000526020600020018190555081600183805490500381548110151561090c57fe5b90600052602060002001600090558180548091906001900361092e9190610a7e565b50610941565b808060010191505061088f565b508060026000858152602001908152602001600020908054610964929190610aaa565b50600160008581526020019081526020016000206001015483857f585a4aef50f8267a92b32412b331b20f7f8b96f2245b253b9cc50dcc621d339760405160405180910390a4600191505092915050565b606060026000838152602001908152602001600020805480602002602001604051908101604052809291908181526020018280548015610a1457602002820191906000526020600020905b815481526020019060010190808311610a00575b50505050509050919050565b60008060010260016000858152602001908152602001600020600201541415610a4c5760009050610a78565b8160016000858152602001908152602001600020600001541415610a735760019050610a78565b600090505b92915050565b815481835581811115610aa557818360005260206000209182019101610aa49190610afc565b5b505050565b828054828255906000526020600020908101928215610aeb5760005260206000209182015b82811115610aea578254825591600101919060010190610acf565b5b509050610af89190610afc565b5090565b610b1e91905b80821115610b1a576000816000905550600101610b02565b5090565b9056fea165627a7a7230582089060ff1c49e2a49aefcdba6190baed2047390cff63e081289ffc270385b88360029",
  "source": "pragma solidity >=0.5.0 <0.6.0;\n\nimport \"./ERC725.sol\";\nimport \"./KeyManager.sol\";\n\ncontract Identity is ERC725 {\n  uint256 constant OPERATION_CALL = 0;\n  uint256 constant OPERATION_CREATE = 1;\n\n  address public owner;\n  mapping(bytes32 => bytes32) store;\n\n  constructor(address _owner) public {\n    owner = address(new KeyManager(address(this), _owner));\n  }\n\n  modifier onlyOwner() {\n    require(msg.sender == owner, \"only-owner-allowed\");\n    _;\n  }\n\n  function () external payable {}\n\n  function changeOwner(address _owner) external onlyOwner {\n    owner = _owner;\n    emit OwnerChanged(owner);\n  }\n\n  function getData(bytes32 _key) external view returns (bytes32 _value) {\n    return store[_key];\n  }\n\n  function setData(bytes32 _key, bytes32 _value) external onlyOwner {\n    store[_key] = _value;\n    emit DataChanged(_key, _value);\n  }\n\n  function execute(uint256 _operationType, address _to, uint256 _value, bytes calldata _data)\n    external\n    onlyOwner\n  {\n    if (_operationType == OPERATION_CALL) {\n      executeCall(_to, _value, _data);\n    } else if (_operationType == OPERATION_CREATE) {\n      address newContract = executeCreate(_data);\n      emit ContractCreated(newContract);\n    } else {\n      // We don't want to spend users gas if parametar is wrong\n      revert(\"\");\n    }\n  }\n\n  // copied from GnosisSafe\n  // https://github.com/gnosis/safe-contracts/blob/v0.0.2-alpha/contracts/base/Executor.sol\n  function executeCall(address to, uint256 value, bytes memory data)\n    internal\n    returns (bool success)\n  {\n    // solium-disable-next-line security/no-inline-assembly\n    assembly {\n      success := call(gas, to, value, add(data, 0x20), mload(data), 0, 0)\n    }\n  }\n\n  // copied from GnosisSafe\n  // https://github.com/gnosis/safe-contracts/blob/v0.0.2-alpha/contracts/base/Executor.sol\n  function executeCreate(bytes memory data)\n    internal\n    returns (address newContract)\n  {\n    // solium-disable-next-line security/no-inline-assembly\n    assembly {\n      newContract := create(0, add(data, 0x20), mload(data))\n    }\n  }\n\n  // function kill() public {\n  //   if (msg.sender == owner) selfdestruct(msg.sender);\n  // }\n}\n",
  "sourcePath": "/Users/xiaobowen/codes/erc725-did-method/contracts/Identity.sol",
  "compiler": {
    "name": "solc",
    "version": "0.5.0+commit.1d4f565a.Emscripten.clang"
  },
  "schemaVersion": "3.0.2",
  "updatedAt": "2019-04-03T06:09:43.566Z",
  "devdoc": {
    "methods": {}
  },
  "userdoc": {
    "methods": {}
  }
}