{
  "contractName": "KeyManager",
  "abi": [
    {
      "constant": true,
      "inputs": [],
      "name": "manager",
      "outputs": [
        {
          "name": "",
          "type": "address"
        }
      ],
      "payable": false,
      "stateMutability": "view",
      "type": "function"
    },
    {
      "inputs": [
        {
          "name": "_identity",
          "type": "address"
        },
        {
          "name": "_manager",
          "type": "address"
        }
      ],
      "payable": false,
      "stateMutability": "nonpayable",
      "type": "constructor"
    },
    {
      "anonymous": false,
      "inputs": [
        {
          "indexed": true,
          "name": "key",
          "type": "bytes32"
        },
        {
          "indexed": true,
          "name": "purpose",
          "type": "uint256"
        },
        {
          "indexed": true,
          "name": "keyType",
          "type": "uint256"
        }
      ],
      "name": "KeyAdded",
      "type": "event"
    },
    {
      "anonymous": false,
      "inputs": [
        {
          "indexed": true,
          "name": "key",
          "type": "bytes32"
        },
        {
          "indexed": true,
          "name": "purpose",
          "type": "uint256"
        },
        {
          "indexed": true,
          "name": "keyType",
          "type": "uint256"
        }
      ],
      "name": "KeyRemoved",
      "type": "event"
    },
    {
      "anonymous": false,
      "inputs": [
        {
          "indexed": true,
          "name": "executionId",
          "type": "uint256"
        },
        {
          "indexed": true,
          "name": "to",
          "type": "address"
        },
        {
          "indexed": true,
          "name": "value",
          "type": "uint256"
        },
        {
          "indexed": false,
          "name": "data",
          "type": "bytes"
        }
      ],
      "name": "ExecutionRequested",
      "type": "event"
    },
    {
      "anonymous": false,
      "inputs": [
        {
          "indexed": true,
          "name": "executionId",
          "type": "uint256"
        },
        {
          "indexed": true,
          "name": "to",
          "type": "address"
        },
        {
          "indexed": true,
          "name": "value",
          "type": "uint256"
        },
        {
          "indexed": false,
          "name": "data",
          "type": "bytes"
        }
      ],
      "name": "Executed",
      "type": "event"
    },
    {
      "anonymous": false,
      "inputs": [
        {
          "indexed": true,
          "name": "executionId",
          "type": "uint256"
        },
        {
          "indexed": false,
          "name": "approved",
          "type": "bool"
        }
      ],
      "name": "Approved",
      "type": "event"
    },
    {
      "anonymous": false,
      "inputs": [
        {
          "indexed": false,
          "name": "purpose",
          "type": "uint256"
        },
        {
          "indexed": false,
          "name": "number",
          "type": "uint256"
        }
      ],
      "name": "KeysRequiredChanged",
      "type": "event"
    },
    {
      "constant": true,
      "inputs": [
        {
          "name": "_key",
          "type": "bytes32"
        },
        {
          "name": "_purpose",
          "type": "uint256"
        }
      ],
      "name": "keyHasPurpose",
      "outputs": [
        {
          "name": "isExistent",
          "type": "bool"
        }
      ],
      "payable": false,
      "stateMutability": "view",
      "type": "function"
    },
    {
      "constant": true,
      "inputs": [
        {
          "name": "_key",
          "type": "bytes32"
        }
      ],
      "name": "getKey",
      "outputs": [
        {
          "name": "purpose",
          "type": "uint256"
        },
        {
          "name": "keyType",
          "type": "uint256"
        },
        {
          "name": "key",
          "type": "bytes32"
        }
      ],
      "payable": false,
      "stateMutability": "view",
      "type": "function"
    },
    {
      "constant": true,
      "inputs": [
        {
          "name": "_purpose",
          "type": "uint256"
        }
      ],
      "name": "getKeysByPurpose",
      "outputs": [
        {
          "name": "_keys",
          "type": "bytes32[]"
        }
      ],
      "payable": false,
      "stateMutability": "view",
      "type": "function"
    },
    {
      "constant": false,
      "inputs": [
        {
          "name": "_key",
          "type": "bytes32"
        },
        {
          "name": "_purpose",
          "type": "uint256"
        },
        {
          "name": "_keyType",
          "type": "uint256"
        }
      ],
      "name": "addKey",
      "outputs": [
        {
          "name": "success",
          "type": "bool"
        }
      ],
      "payable": false,
      "stateMutability": "nonpayable",
      "type": "function"
    },
    {
      "constant": false,
      "inputs": [
        {
          "name": "_key",
          "type": "bytes32"
        },
        {
          "name": "_purpose",
          "type": "uint256"
        }
      ],
      "name": "removeKey",
      "outputs": [
        {
          "name": "success",
          "type": "bool"
        }
      ],
      "payable": false,
      "stateMutability": "nonpayable",
      "type": "function"
    }
  ],
  "bytecode": "0x608060405234801561001057600080fd5b50604051604080610dd88339810180604052604081101561003057600080fd5b810190808051906020019092919080519060200190929190505050806000806101000a81548173ffffffffffffffffffffffffffffffffffffffff021916908373ffffffffffffffffffffffffffffffffffffffff16021790555081600160006101000a81548173ffffffffffffffffffffffffffffffffffffffff021916908373ffffffffffffffffffffffffffffffffffffffff160217905550600081604051602001808273ffffffffffffffffffffffffffffffffffffffff1673ffffffffffffffffffffffffffffffffffffffff166c01000000000000000000000000028152601401915050604051602081830303815290604052805190602001209050606060405190810160405280600181526020016001815260200182815250600260008381526020019081526020016000206000820151816000015560208201518160010155604082015181600201559050506003600060018152602001908152602001600020819080600181540180825580915050906001820390600052602060002001600090919290919091505550600180827f480000bb1edad8ca1470381cc334b1917fbd51c6531f3a623ea8e0ec7e38a6e960405160405180910390a4505050610bd4806102046000396000f3fe608060405260043610610078576000357c0100000000000000000000000000000000000000000000000000000000900463ffffffff16806312aaac701461007d5780631d381240146100da578063481c6a751461014157806353d413c5146101985780639010f726146101f5578063d202158d14610285575b600080fd5b34801561008957600080fd5b506100b6600480360360208110156100a057600080fd5b81019080803590602001909291905050506102e2565b60405180848152602001838152602001828152602001935050505060405180910390f35b3480156100e657600080fd5b50610127600480360360608110156100fd57600080fd5b81019080803590602001909291908035906020019092919080359060200190929190505050610339565b604051808215151515815260200191505060405180910390f35b34801561014d57600080fd5b50610156610635565b604051808273ffffffffffffffffffffffffffffffffffffffff1673ffffffffffffffffffffffffffffffffffffffff16815260200191505060405180910390f35b3480156101a457600080fd5b506101db600480360360408110156101bb57600080fd5b81019080803590602001909291908035906020019092919050505061065a565b604051808215151515815260200191505060405180910390f35b34801561020157600080fd5b5061022e6004803603602081101561021857600080fd5b8101908080359060200190929190505050610a3c565b6040518080602001828103825283818151815260200191508051906020019060200280838360005b83811015610271578082015181840152602081019050610256565b505050509050019250505060405180910390f35b34801561029157600080fd5b506102c8600480360360408110156102a857600080fd5b810190808035906020019092919080359060200190929190505050610aa7565b604051808215151515815260200191505060405180910390f35b60008060006002600085815260200190815260200160002060000154600260008681526020019081526020016000206001015460026000878152602001908152602001600020600201549250925092509193909250565b6000836002600086815260200190815260200160002060020154141515156103c9576040517f08c379a00000000000000000000000000000000000000000000000000000000081526004018080602001828103825260138152602001807f4b657920616c7265616479206578697374732e0000000000000000000000000081525060200191505060405180910390fd5b3073ffffffffffffffffffffffffffffffffffffffff163373ffffffffffffffffffffffffffffffffffffffff161415156105ab573073ffffffffffffffffffffffffffffffffffffffff1663d202158d33604051602001808273ffffffffffffffffffffffffffffffffffffffff1673ffffffffffffffffffffffffffffffffffffffff166c010000000000000000000000000281526014019150506040516020818303038152906040528051906020012060016040518363ffffffff167c0100000000000000000000000000000000000000000000000000000000028152600401808381526020018281526020019250505060206040518083038186803b1580156104d557600080fd5b505afa1580156104e9573d6000803e3d6000fd5b505050506040513d60208110156104ff57600080fd5b810190808051906020019092919050505015156105aa576040517f08c379a00000000000000000000000000000000000000000000000000000000081526004018080602001828103825260238152602001807f53656e64657220646f7365206e6f7420686176652061206d616e61676572206b81526020017f65792e000000000000000000000000000000000000000000000000000000000081525060400191505060405180910390fd5b5b60606040519081016040528084815260200183815260200185815250600260008681526020019081526020016000206000820151816000015560208201518160010155604082015181600201559050508183857f480000bb1edad8ca1470381cc334b1917fbd51c6531f3a623ea8e0ec7e38a6e960405160405180910390a4600190509392505050565b6000809054906101000a900473ffffffffffffffffffffffffffffffffffffffff1681565b60008260026000858152602001908152602001600020600201541415156106e9576040517f08c379a000000000000000000000000000000000000000000000000000000000815260040180806020018281038252600c8152602001807f4e6f2073756368206b65792e000000000000000000000000000000000000000081525060200191505060405180910390fd5b3073ffffffffffffffffffffffffffffffffffffffff163373ffffffffffffffffffffffffffffffffffffffff161415156108cb573073ffffffffffffffffffffffffffffffffffffffff1663d202158d33604051602001808273ffffffffffffffffffffffffffffffffffffffff1673ffffffffffffffffffffffffffffffffffffffff166c010000000000000000000000000281526014019150506040516020818303038152906040528051906020012060016040518363ffffffff167c0100000000000000000000000000000000000000000000000000000000028152600401808381526020018281526020019250505060206040518083038186803b1580156107f557600080fd5b505afa158015610809573d6000803e3d6000fd5b505050506040513d602081101561081f57600080fd5b810190808051906020019092919050505015156108ca576040517f08c379a00000000000000000000000000000000000000000000000000000000081526004018080602001828103825260238152602001807f53656e64657220646f6573206e6f7420686176652061206d616e61676572206b81526020017f65792e000000000000000000000000000000000000000000000000000000000081525060400191505060405180910390fd5b5b600260008481526020019081526020016000206001015482847f585a4aef50f8267a92b32412b331b20f7f8b96f2245b253b9cc50dcc621d339760405160405180910390a460026000848152602001908152602001600020600080820160009055600182016000905560028201600090555050600060036000848152602001908152602001600020905060008090505b8180549050811015610a0d5784828281548110151561097657fe5b90600052602060002001541415610a005781600183805490500381548110151561099c57fe5b906000526020600020015482828154811015156109b557fe5b90600052602060002001819055508160018380549050038154811015156109d857fe5b9060005260206000200160009055818054809190600190036109fa9190610b05565b50610a0d565b808060010191505061095b565b508060036000858152602001908152602001600020908054610a30929190610b31565b50600191505092915050565b606060036000838152602001908152602001600020805480602002602001604051908101604052809291908181526020018280548015610a9b57602002820191906000526020600020905b815481526020019060010190808311610a87575b50505050509050919050565b60008060010260026000858152602001908152602001600020600201541415610ad35760009050610aff565b8160026000858152602001908152602001600020600001541415610afa5760019050610aff565b600090505b92915050565b815481835581811115610b2c57818360005260206000209182019101610b2b9190610b83565b5b505050565b828054828255906000526020600020908101928215610b725760005260206000209182015b82811115610b71578254825591600101919060010190610b56565b5b509050610b7f9190610b83565b5090565b610ba591905b80821115610ba1576000816000905550600101610b89565b5090565b9056fea165627a7a72305820399f9f575325547872ec54fdeb88688044ce836017ac93fef690212ecbce79140029",
  "source": "pragma solidity >=0.5.0 <0.6.0;\n\nimport \"./ERC725.sol\";\nimport \"./ERC734.sol\";\n\ncontract KeyManager is ERC734 {\n\n  uint256 constant MANAGEMENT_KEY = 1;\n  uint256 constant EXECUTION_KEY = 2;\n  uint256 constant CLAIM_SIGNER_KEY = 3;\n\n  uint256 constant ECDSA_TYPE = 1;\n  uint256 constant RSA_TYPE = 2;\n\n  address public manager;\n  ERC725 private identity;\n  mapping (bytes32 => Key) keys;\n  mapping (uint256 => bytes32[]) keysByPurpose;\n\n  constructor(address _identity, address _manager) public {\n    manager = _manager;\n    identity = ERC725(_identity);\n    bytes32 _key = keccak256(abi.encodePacked(_manager));\n    keys[_key] = Key({\n      purpose: MANAGEMENT_KEY,\n      keyType: ECDSA_TYPE,\n      key: _key\n    });\n    keysByPurpose[MANAGEMENT_KEY].push(_key);\n    emit KeyAdded(_key, MANAGEMENT_KEY, ECDSA_TYPE);\n  }\n\n  function keyHasPurpose(bytes32 _key, uint256 _purpose) external view returns (bool isExistent) {\n    if (keys[_key].key == 0) return false;\n    if (keys[_key].purpose == _purpose) {\n      return true;\n    } else {\n      return false;\n    }\n  }\n\n\n  function getKey(bytes32 _key) external view returns (uint256 purpose, uint256 keyType, bytes32 key) {\n    return (keys[_key].purpose, keys[_key].keyType, keys[_key].key);\n  }\n\n\n  function getKeysByPurpose(uint256 _purpose) external view returns (bytes32[] memory _keys) {\n    return keysByPurpose[_purpose];\n  }\n\n  function addKey(bytes32 _key, uint256 _purpose, uint256 _keyType) external returns (bool success) {\n    require(keys[_key].key != _key, \"Key already exists.\");\n    if (msg.sender != address(this)) {\n      require(this.keyHasPurpose(keccak256(abi.encodePacked(msg.sender)), 1), \"Sender dose not have a manager key.\");\n    }\n\n    keys[_key] = Key({\n      key: _key,\n      purpose: _purpose,\n      keyType: _keyType\n    });\n\n    emit KeyAdded(_key, _purpose, _keyType);\n\n    return true;\n  }\n\n\n  function removeKey(bytes32 _key, uint256 _purpose) external returns (bool success) {\n    require(keys[_key].key == _key, \"No such key.\");\n    if (msg.sender != address(this)) {\n      require(this.keyHasPurpose(keccak256(abi.encodePacked(msg.sender)), 1), \"Sender does not have a manager key.\");\n    }\n    \n    emit KeyRemoved(_key, _purpose, keys[_key].keyType);\n\n    delete keys[_key];\n\n    bytes32[] storage keysCache = keysByPurpose[_purpose];\n    for (uint i = 0; i < keysCache.length; i++) {\n      if (keysCache[i] == _key) {\n        keysCache[i] = keysCache[keysCache.length - 1];\n        delete keysCache[keysCache.length - 1];\n        keysCache.length --;\n        break;\n      }\n    }\n    keysByPurpose[_purpose] = keysCache;\n\n\n    return true;\n  }\n\n}\n",
  "sourcePath": "/Users/xiaobowen/codes/erc725-did-method/contracts/KeyManager.sol",
  "compiler": {
    "name": "solc",
    "version": "0.5.0+commit.1d4f565a.Emscripten.clang"
  },
  "schemaVersion": "3.0.2",
  "updatedAt": "2019-04-13T07:31:17.248Z",
  "devdoc": {
    "methods": {}
  },
  "userdoc": {
    "methods": {}
  }
}