{
  "contractName": "KeyManager",
  "abi": [
    {
      "inputs": [
        {
          "name": "_identity",
          "type": "address"
        },
        {
          "name": "_manager",
          "type": "address"
        }
      ],
      "payable": false,
      "stateMutability": "nonpayable",
      "type": "constructor"
    },
    {
      "anonymous": false,
      "inputs": [
        {
          "indexed": true,
          "name": "key",
          "type": "bytes32"
        },
        {
          "indexed": true,
          "name": "purpose",
          "type": "uint256"
        },
        {
          "indexed": true,
          "name": "keyType",
          "type": "uint256"
        }
      ],
      "name": "KeyAdded",
      "type": "event"
    },
    {
      "anonymous": false,
      "inputs": [
        {
          "indexed": true,
          "name": "key",
          "type": "bytes32"
        },
        {
          "indexed": true,
          "name": "purpose",
          "type": "uint256"
        },
        {
          "indexed": true,
          "name": "keyType",
          "type": "uint256"
        }
      ],
      "name": "KeyRemoved",
      "type": "event"
    },
    {
      "anonymous": false,
      "inputs": [
        {
          "indexed": true,
          "name": "executionId",
          "type": "uint256"
        },
        {
          "indexed": true,
          "name": "to",
          "type": "address"
        },
        {
          "indexed": true,
          "name": "value",
          "type": "uint256"
        },
        {
          "indexed": false,
          "name": "data",
          "type": "bytes"
        }
      ],
      "name": "ExecutionRequested",
      "type": "event"
    },
    {
      "anonymous": false,
      "inputs": [
        {
          "indexed": true,
          "name": "executionId",
          "type": "uint256"
        },
        {
          "indexed": true,
          "name": "to",
          "type": "address"
        },
        {
          "indexed": true,
          "name": "value",
          "type": "uint256"
        },
        {
          "indexed": false,
          "name": "data",
          "type": "bytes"
        }
      ],
      "name": "Executed",
      "type": "event"
    },
    {
      "anonymous": false,
      "inputs": [
        {
          "indexed": true,
          "name": "executionId",
          "type": "uint256"
        },
        {
          "indexed": false,
          "name": "approved",
          "type": "bool"
        }
      ],
      "name": "Approved",
      "type": "event"
    },
    {
      "anonymous": false,
      "inputs": [
        {
          "indexed": false,
          "name": "purpose",
          "type": "uint256"
        },
        {
          "indexed": false,
          "name": "number",
          "type": "uint256"
        }
      ],
      "name": "KeysRequiredChanged",
      "type": "event"
    },
    {
      "constant": true,
      "inputs": [
        {
          "name": "_key",
          "type": "bytes32"
        },
        {
          "name": "_purpose",
          "type": "uint256"
        }
      ],
      "name": "keyHasPurpose",
      "outputs": [
        {
          "name": "isExistent",
          "type": "bool"
        }
      ],
      "payable": false,
      "stateMutability": "view",
      "type": "function"
    },
    {
      "constant": true,
      "inputs": [
        {
          "name": "_key",
          "type": "bytes32"
        }
      ],
      "name": "getKey",
      "outputs": [
        {
          "name": "purpose",
          "type": "uint256"
        },
        {
          "name": "keyType",
          "type": "uint256"
        },
        {
          "name": "key",
          "type": "bytes32"
        }
      ],
      "payable": false,
      "stateMutability": "view",
      "type": "function"
    },
    {
      "constant": true,
      "inputs": [
        {
          "name": "_purpose",
          "type": "uint256"
        }
      ],
      "name": "getKeysByPurpose",
      "outputs": [
        {
          "name": "_keys",
          "type": "bytes32[]"
        }
      ],
      "payable": false,
      "stateMutability": "view",
      "type": "function"
    },
    {
      "constant": false,
      "inputs": [
        {
          "name": "_key",
          "type": "bytes32"
        },
        {
          "name": "_purpose",
          "type": "uint256"
        },
        {
          "name": "_keyType",
          "type": "uint256"
        }
      ],
      "name": "addKey",
      "outputs": [
        {
          "name": "success",
          "type": "bool"
        }
      ],
      "payable": false,
      "stateMutability": "nonpayable",
      "type": "function"
    },
    {
      "constant": false,
      "inputs": [
        {
          "name": "_key",
          "type": "bytes32"
        },
        {
          "name": "_purpose",
          "type": "uint256"
        }
      ],
      "name": "removeKey",
      "outputs": [
        {
          "name": "success",
          "type": "bool"
        }
      ],
      "payable": false,
      "stateMutability": "nonpayable",
      "type": "function"
    }
  ],
  "bytecode": "0x608060405234801561001057600080fd5b50604051604080610d108339810180604052604081101561003057600080fd5b810190808051906020019092919080519060200190929190505050816000806101000a81548173ffffffffffffffffffffffffffffffffffffffff021916908373ffffffffffffffffffffffffffffffffffffffff160217905550600081604051602001808273ffffffffffffffffffffffffffffffffffffffff1673ffffffffffffffffffffffffffffffffffffffff166c01000000000000000000000000028152601401915050604051602081830303815290604052805190602001209050606060405190810160405280600181526020016001815260200182815250600160008381526020019081526020016000206000820151816000015560208201518160010155604082015181600201559050506002600060018152602001908152602001600020819080600181540180825580915050906001820390600052602060002001600090919290919091505550600180827f480000bb1edad8ca1470381cc334b1917fbd51c6531f3a623ea8e0ec7e38a6e960405160405180910390a4505050610b4d806101c36000396000f3fe60806040526004361061006d576000357c0100000000000000000000000000000000000000000000000000000000900463ffffffff16806312aaac70146100725780631d381240146100cf57806353d413c5146101365780639010f72614610193578063d202158d14610223575b600080fd5b34801561007e57600080fd5b506100ab6004803603602081101561009557600080fd5b8101908080359060200190929190505050610280565b60405180848152602001838152602001828152602001935050505060405180910390f35b3480156100db57600080fd5b5061011c600480360360608110156100f257600080fd5b810190808035906020019092919080359060200190929190803590602001909291905050506102d7565b604051808215151515815260200191505060405180910390f35b34801561014257600080fd5b506101796004803603604081101561015957600080fd5b8101908080359060200190929190803590602001909291905050506105d3565b604051808215151515815260200191505060405180910390f35b34801561019f57600080fd5b506101cc600480360360208110156101b657600080fd5b81019080803590602001909291905050506109b5565b6040518080602001828103825283818151815260200191508051906020019060200280838360005b8381101561020f5780820151818401526020810190506101f4565b505050509050019250505060405180910390f35b34801561022f57600080fd5b506102666004803603604081101561024657600080fd5b810190808035906020019092919080359060200190929190505050610a20565b604051808215151515815260200191505060405180910390f35b60008060006001600085815260200190815260200160002060000154600160008681526020019081526020016000206001015460016000878152602001908152602001600020600201549250925092509193909250565b600083600160008681526020019081526020016000206002015414151515610367576040517f08c379a00000000000000000000000000000000000000000000000000000000081526004018080602001828103825260138152602001807f4b657920616c7265616479206578697374732e0000000000000000000000000081525060200191505060405180910390fd5b3073ffffffffffffffffffffffffffffffffffffffff163373ffffffffffffffffffffffffffffffffffffffff16141515610549573073ffffffffffffffffffffffffffffffffffffffff1663d202158d33604051602001808273ffffffffffffffffffffffffffffffffffffffff1673ffffffffffffffffffffffffffffffffffffffff166c010000000000000000000000000281526014019150506040516020818303038152906040528051906020012060016040518363ffffffff167c0100000000000000000000000000000000000000000000000000000000028152600401808381526020018281526020019250505060206040518083038186803b15801561047357600080fd5b505afa158015610487573d6000803e3d6000fd5b505050506040513d602081101561049d57600080fd5b81019080805190602001909291905050501515610548576040517f08c379a00000000000000000000000000000000000000000000000000000000081526004018080602001828103825260238152602001807f53656e64657220646f7365206e6f7420686176652061206d616e61676572206b81526020017f65792e000000000000000000000000000000000000000000000000000000000081525060400191505060405180910390fd5b5b60606040519081016040528084815260200183815260200185815250600160008681526020019081526020016000206000820151816000015560208201518160010155604082015181600201559050508183857f480000bb1edad8ca1470381cc334b1917fbd51c6531f3a623ea8e0ec7e38a6e960405160405180910390a4600190509392505050565b6000826001600085815260200190815260200160002060020154141515610662576040517f08c379a000000000000000000000000000000000000000000000000000000000815260040180806020018281038252600c8152602001807f4e6f2073756368206b65792e000000000000000000000000000000000000000081525060200191505060405180910390fd5b3073ffffffffffffffffffffffffffffffffffffffff163373ffffffffffffffffffffffffffffffffffffffff16141515610844573073ffffffffffffffffffffffffffffffffffffffff1663d202158d33604051602001808273ffffffffffffffffffffffffffffffffffffffff1673ffffffffffffffffffffffffffffffffffffffff166c010000000000000000000000000281526014019150506040516020818303038152906040528051906020012060016040518363ffffffff167c0100000000000000000000000000000000000000000000000000000000028152600401808381526020018281526020019250505060206040518083038186803b15801561076e57600080fd5b505afa158015610782573d6000803e3d6000fd5b505050506040513d602081101561079857600080fd5b81019080805190602001909291905050501515610843576040517f08c379a00000000000000000000000000000000000000000000000000000000081526004018080602001828103825260238152602001807f53656e64657220646f6573206e6f7420686176652061206d616e61676572206b81526020017f65792e000000000000000000000000000000000000000000000000000000000081525060400191505060405180910390fd5b5b60016000848152602001908152602001600020600080820160009055600182016000905560028201600090555050600060026000848152602001908152602001600020905060008090505b8180549050811015610941578482828154811015156108aa57fe5b90600052602060002001541415610934578160018380549050038154811015156108d057fe5b906000526020600020015482828154811015156108e957fe5b906000526020600020018190555081600183805490500381548110151561090c57fe5b90600052602060002001600090558180548091906001900361092e9190610a7e565b50610941565b808060010191505061088f565b508060026000858152602001908152602001600020908054610964929190610aaa565b50600160008581526020019081526020016000206001015483857f585a4aef50f8267a92b32412b331b20f7f8b96f2245b253b9cc50dcc621d339760405160405180910390a4600191505092915050565b606060026000838152602001908152602001600020805480602002602001604051908101604052809291908181526020018280548015610a1457602002820191906000526020600020905b815481526020019060010190808311610a00575b50505050509050919050565b60008060010260016000858152602001908152602001600020600201541415610a4c5760009050610a78565b8160016000858152602001908152602001600020600001541415610a735760019050610a78565b600090505b92915050565b815481835581811115610aa557818360005260206000209182019101610aa49190610afc565b5b505050565b828054828255906000526020600020908101928215610aeb5760005260206000209182015b82811115610aea578254825591600101919060010190610acf565b5b509050610af89190610afc565b5090565b610b1e91905b80821115610b1a576000816000905550600101610b02565b5090565b9056fea165627a7a72305820c3297f2e91d1d88a4d571e432b5f525d1ad60dd6adb12b304a6843c93b21847d0029",
  "source": "pragma solidity >=0.5.0 <0.6.0;\n\nimport \"./ERC725.sol\";\nimport \"./ERC734.sol\";\n\ncontract KeyManager is ERC734 {\n\n  uint256 constant MANAGEMENT_KEY = 1;\n  uint256 constant EXECUTION_KEY = 2;\n  uint256 constant CLAIM_SIGNER_KEY = 3;\n\n  uint256 constant ECDSA_TYPE = 1;\n  uint256 constant RSA_TYPE = 2;\n\n  ERC725 private identity;\n  mapping (bytes32 => Key) keys;\n  mapping (uint256 => bytes32[]) keysByPurpose;\n\n  constructor(address _identity, address _manager) public {\n    identity = ERC725(_identity);\n    bytes32 _key = keccak256(abi.encodePacked(_manager));\n    keys[_key] = Key({\n      purpose: MANAGEMENT_KEY,\n      keyType: ECDSA_TYPE,\n      key: _key\n    });\n    keysByPurpose[MANAGEMENT_KEY].push(_key);\n    emit KeyAdded(_key, MANAGEMENT_KEY, ECDSA_TYPE);\n  }\n\n  function keyHasPurpose(bytes32 _key, uint256 _purpose) external view returns (bool isExistent) {\n    if (keys[_key].key == 0) return false;\n    if (keys[_key].purpose == _purpose) {\n      return true;\n    } else {\n      return false;\n    }\n  }\n\n\n  function getKey(bytes32 _key) external view returns (uint256 purpose, uint256 keyType, bytes32 key) {\n    return (keys[_key].purpose, keys[_key].keyType, keys[_key].key);\n  }\n\n\n  function getKeysByPurpose(uint256 _purpose) external view returns (bytes32[] memory _keys) {\n    return keysByPurpose[_purpose];\n  }\n\n  function addKey(bytes32 _key, uint256 _purpose, uint256 _keyType) external returns (bool success) {\n    require(keys[_key].key != _key, \"Key already exists.\");\n    if (msg.sender != address(this)) {\n      require(this.keyHasPurpose(keccak256(abi.encodePacked(msg.sender)), 1), \"Sender dose not have a manager key.\");\n    }\n\n    keys[_key] = Key({\n      key: _key,\n      purpose: _purpose,\n      keyType: _keyType\n    });\n\n    emit KeyAdded(_key, _purpose, _keyType);\n\n    return true;\n  }\n\n\n  function removeKey(bytes32 _key, uint256 _purpose) external returns (bool success) {\n    require(keys[_key].key == _key, \"No such key.\");\n    if (msg.sender != address(this)) {\n      require(this.keyHasPurpose(keccak256(abi.encodePacked(msg.sender)), 1), \"Sender does not have a manager key.\");\n    }\n\n    delete keys[_key];\n\n    bytes32[] storage keysCache = keysByPurpose[_purpose];\n    for (uint i = 0; i < keysCache.length; i++) {\n      if (keysCache[i] == _key) {\n        keysCache[i] = keysCache[keysCache.length - 1];\n        delete keysCache[keysCache.length - 1];\n        keysCache.length --;\n        break;\n      }\n    }\n    keysByPurpose[_purpose] = keysCache;\n\n    emit KeyRemoved(_key, _purpose, keys[_key].keyType);\n\n    return true;\n  }\n\n}\n",
  "sourcePath": "/Users/xiaobowen/codes/did-erc725-method/contracts/KeyManager.sol",
  "compiler": {
    "name": "solc",
    "version": "0.5.0+commit.1d4f565a.Emscripten.clang"
  },
  "schemaVersion": "3.0.2",
  "updatedAt": "2019-04-02T08:01:06.856Z",
  "devdoc": {
    "methods": {}
  },
  "userdoc": {
    "methods": {}
  }
}